:020000040800F2
:100000002824002021030008353E0008413B000859
:10001000313E000821180008B55F0008000000000C
:100020000000000000000000000000005D43000828
:1000300079190008000000009D4100086144000893
:100040003B0300083B0300083B0300083B03000898
:100050003B0300083B0300083B0300083B03000888
:100060003B0300083B0300083B0300083B03000878
:100070003B0300083B0300083B0300083B03000868
:100080003B0300083B0300080917000800000000BC
:100090000000000000000000000000003B0300081A
:1000A0003B0300083B030008214500083B03000810
:1000B0003B0300083B0300083B0300083B03000828
:1000C0003B0300083B0300083B0300083B03000818
:1000D0003B0300083B0300083B030008000000004E
:1000E0003B0300083B0300083B030008000000003E
:1000F0000000000000000000000000003B030008BA
:10010000000000003B0300083B0300083B0300081D
:1001100000000000000000000000000000000000DF
:10012000AD1800083B0300083B0300083B03000830
:100130003B03000800000000000000000000000079
:100140000000000000000000000000008D3F0008DB
:100150003B0300083B0300083B0300083B03000887
:100160003B0300083B030008000000000000000003
:10017000000000000000000000000000000000007F
:10018000000000003B030008000000000000000029
:100190003B03000800F002F800F0B2F80AA090E873
:1001A000000C82448344AAF10107DA4501D100F032
:1001B000A7F8AFF2090EBAE80F0013F0010F18BF4D
:1001C000FB1A43F00103184794770000B47700004E
:1001D0000A444FF0000C10F8013B13F0070408BF6D
:1001E00010F8014B1D1108BF10F8015B641E05D00B
:1001F00010F8016B641E01F8016BF9D113F0080FC0
:100200001EBF10F8014BAD1C0C1B09D16D1E58BF51
:1002100001F801CBFAD505E014F8016B01F8016B88
:100220006D1EF9D59142D6D37047000000230024FB
:1002300000250026103A28BF78C1FBD8520728BFF6
:1002400030C148BF0B6070476E2900F0E381702910
:1002500000F02D83662907F07680652907F073800A
:10026000672907F07080612907F06F8003681B0A17
:1002700028BF41F08001692900F09081642900F0D5
:100280008D81752900F08A816F2900F0BB82782961
:1002900000F0F982E92900F05582E42900F0528249
:1002A000F52900F04F82EF2900F0B882F82900F01C
:1002B000F8820368DB0928BF41F08001632900F060
:1002C000F987732900F0FE87E32901F00980F329FB
:1002D00001F00E80002070471FB507F022F801F0F2
:1002E00061F804000020002106F060FB401C606003
:1002F0000020002106F044FBE0601FBD10B510BDDA
:1003000001F022F81146FFF7E7FF05F0EBFE01F0E0
:10031000FFF803B4FFF7F2FF03BC01F043F900005C
:100320000948804709480047FEE7FEE7FEE7FEE789
:10033000FEE7FEE7FEE7FEE7FEE7FEE704480549C5
:10034000054A064B704700000D450008950100085E
:10035000281E0020282400202820002028200020FB
:1003600053EA020C00F069802DE9F04B4FF00006D3
:10037000002B1FBFB3FA83F503FA05F424FA05F640
:100380005E4012BF1643B2FA82F502FA05F4C5F1D7
:1003900020051EBF22FA05FC44EA0C04203556EA6B
:1003A000044C4FEA144418BF641C4FF000084FF08F
:1003B0000009904271EB030C39D3002919BFB1FA3F
:1003C00081F701FA07F6B0FA80F700FA07F6C7F1ED
:1003D00020071EBF20FA07FC46EA0C062037B6FBB2
:1003E000F4FCA7EB0507103F07F01F0BCBF120062D
:1003F0002CFA06F60CFA0BFB44BFB3460026202F5E
:10040000A4BF5E464FF0000B5BEA060C08BF4FF03E
:10041000010B19EB0B0948EB0608ABFB027C06FB52
:1004200002CC0BFB03CCC01B71EB0C01C1E70B46EC
:10043000024641464846BDE8F08B13B5084318BF55
:100440004FF0FF300146AFF30080BDE81C4070471D
:100450007CB51D4616460C00009001D02044401E7D
:10046000074B7B442A4669460190304600F0EBF882
:1004700005461CB10020694600F0F8F828467CBD0E
:10048000110200004FF0000200B513469446964654
:10049000203922BFA0E80C50A0E80C50B1F1200197
:1004A000BFF4F7AF090728BFA0E80C5048BF0CC045
:1004B0005DF804EB890028BF40F8042B08BF7047A3
:1004C00048BF20F8022B11F0804F18BF00F8012B15
:1004D000704770477047704770B50446856900687B
:1004E000C10601D5302600E02026C00707D070BD28
:1004F000D4E9012130469047206A401C20626D1EDD
:10050000F6D570BD70B5044685690078C00707D17F
:1005100070BDD4E9012120209047206A401C206250
:100520006D1EF6D570BD09684A0501D540B2704709
:10053000C905FCD500B2704709684A0501D5C0B2AB
:100540007047C905FCD580B2704770B50C460546AA
:10055000012A05D02878800600D5EA69002302E048
:10056000012305E05B1C934202D2E05C0028F9D134
:10057000A869E618C01AA861286A184428622846A3
:10058000FFF7AAFF04E0D5E9012114F8010B904719
:10059000B442F8D32846FFF7B5FF70BD2DE9F0410E
:1005A0000646002410687529314616A510D0FFF7BD
:1005B000BAFF002802DA404213A507E031688A0733
:1005C00001D512A502E0490704D511A5012401E0D7
:1005D000FFF7B2FF00210A2206F1240709E0B0FB71
:1005E000F2FCB0FBF2F302FB1C00303078541846EA
:1005F000491C0028F3D123462A463046BDE8F04185
:1006000000F069BA000000002D0000002B0000007F
:100610002000000011680268006A530501D50870C7
:100620000AE0D30501D5088006E0130603D5C217FA
:10063000C1E9000200E008600120704701694A1C1E
:1006400002610878704700B58FB0CDE90131002113
:10065000059105497944CDE903101146684600F03B
:1006600031F90FB000BD0000E5FFFFFF0A6802F896
:10067000010B0A607047D1E900239A4202D2531C51
:100680000B601070704700002DE9FF5F15468A4629
:100690000446DFF8AC80F8440027D8E900103E4655
:1006A000CDE9001010E03AF816106A4602A800F0F2
:1006B00023FE411C07D02178890603D5E269391849
:1006C00091420DD80744761C2078800602D5E06957
:1006D000B84205DDAE42E6DB3AF816000028E2D16A
:1006E000A069C01BA0612046FFF7F6FED8E9001004
:1006F000CDE90010002017E03AF818106A4602A869
:1007000000F0FAFDB0F1FF3F81460BD000250DF15E
:10071000080B05E0D4E901211BF8050090476D1C8A
:100720004D45F7D308F10100B0428046E4DB206A72
:10073000384420622046FFF7E5FEBDE8FF9F000039
:10074000B66C00002DE9F0418046D21D22F0070270
:100750000025D2E90002F52915A614D0011E72F178
:10076000000106DA0023D0EB030063EB020211A6BE
:1007700008E0D8F800108B0701D50FA602E0490762
:1007800001D50EA601251146002408F1240704E036
:1007900000F05CF930323A55641C50EA0102F7D19E
:1007A0002B46324621464046BDE8F04100F093B961
:1007B000000000002D0000002B00000020000000C1
:1007C00030B4002100F1240408E002F00705D2084B
:1007D000303542EA4372DB086554491C52EA03058E
:1007E000F3D10468002310A2250708D504F02004E3
:1007F0000C4304D0C46901230CA2641EC46130BC44
:1008000000F069B910B5044621461068FFF794FE60
:1008100002462046BDE810400023D1E7D21D22F059
:100820000701D1E90023CBE7000000003000000001
:10083000F0B40D460188090502D5214C7C4402E044
:100840001F4C7C440E34002100F1240608E002F025
:100850000F071209E75D42EA03721B097754491C2E
:1008600052EA0307F3D102780023120704D5702D52
:1008700006D009B1022311342246F0BC00F02BB996
:1008800001231034F8E770B504460D462146106880
:10089000FFF752FE024629462046BDE8704000237D
:1008A000C6E7D21D22F00703D3E90023C0E703689F
:1008B000126843F0200303600823C3610023B7E7F5
:1008C000186B00002DE9F05F894604464FF0000ADE
:1008D000DFF874B1FB44C0F820A02046E1688847E7
:1008E000002874D0252806D0D4E901219047206A39
:1008F000401C2062F1E700265F462046E1688847F9
:100900002028054607DB312D05D2781910F8200C78
:1009100008B10643F1E7B00701D526F00406C4F894
:100920001CA00027C4F818A02A2D09D0284606F0DC
:100930001FF838B304EB8708303DC8F8185019E0A9
:1009400059F8041B204604EB87029161E16888474F
:10095000012F054618D1E069002820DA26F020068C
:100960001DE0D8F8180000EB800005EB400030389F
:10097000C8F818002046E1688847054605F0F8FFEA
:100980000028EED1012F0AD02E2D08D12046E16893
:1009900088477F1C0546022F46F02006C4DBA0696D
:1009A000002803DA404246F00106A061F00701D0BA
:1009B00026F010066C2D0BD0682D09D04C2D39D0A7
:1009C0006A2D35D0742D35D07A2D33D016E038E02D
:1009D000E1682F4620468847B842054609D16C2F6A
:1009E00026D04FF48060E1680643204688470546DC
:1009F00004E06C2F1AD04FF4807006430DB3A5F1BC
:100A00004100192802D8203546F400664A46294696
:100A1000204626604E46FFF717FC80B101280BD018
:100A2000F61D26F0070000F1080956E74020E4E72C
:100A30008020D8E70020D6E706F104094DE72846D4
:100A400052E7206ABDE8F09FA86A000030B5B0F117
:100A50000A0271F100034FEA900E4EEA817EB0EB7C
:100A60000E0061EB91014FEA101E4EEA017E10EB81
:100A70000E0041EB11114FEA102E4EEA016E10EB01
:100A80000E0041EB11214FEA104E4EEA014E10EBE1
:100A90000E0041EB1141401841F100014FEAD00036
:100AA00040EA41704FEAD1014FEA810444EA907470
:100AB00010EB800544EB01046D1944EB0404521B58
:100AC000A3414FF0000348BF0A3200D530BD401C9F
:100AD00041F1000130BD2DE9F0470D46994692469F
:100AE000044600F124080168880604D5E06921F075
:100AF0001001216000E00120A84201DD471B00E059
:100B00000027A1697A1902EB0900081AA061207870
:100B1000C00602D42046FFF7DFFC002608E0D4E937
:100B200001211AF806009047206A401C761C2062BA
:100B30004E45F4DB2078C0060AD52046FFF7CCFCF2
:100B400006E0D4E9012130209047206A401C206251
:100B5000381EA7F10107F4DC07E0D4E9012118F8F9
:100B600005009047206A401C2062281EA5F101055F
:100B7000F3DC2046FFF7C6FC2078000602D50220F1
:100B8000BDE8F0870120FBE72DE9FF4F0C461E462C
:100B90004FF0FF378BB0D2E90001DDF860800A909A
:100BA0008A46C1F30A5505B93D46002108464FF073
:100BB0000000BAF1000F00F4400005DA00EB8000FD
:100BC0004FF4400101EA50004FEA9059B9F1010F8A
:100BD00000DDB9460A9850EA4A000ED044F610509B
:100BE000A5F2FF3545432F14B8F1000F1ED0754212
:100BF000291E1EDDC9F100021CE0B8F1010F4FF003
:100C0000000001D0302103E0F24305E02154401CF4
:100C1000B042FBDB30460022002121540B99C1F881
:100C20000880C1E900200FB0BDE8F08FBD1B6D1C2E
:100C3000DEE74A4600DA694206A800F0F7FB06AB99
:100C400093E8070003AB83E8070050460A9905F0D4
:100C5000AEFA8DE80700A0F500501F380090039809
:100C6000002D0ADD42F21F014A460844002303A971
:100C70000390684605F018FD09E0A0F500504A46CB
:100C80001F38002303A90390684605F022FD8DE874
:100C900007000004000C03D04FF0FF30410800E0D3
:100CA0001046B8F1000F03D00022009215461EE056
:100CB000751E05D4FFF7CAFE303262556D1EF9D598
:100CC000B3460122084302D000227F1C04E02078B2
:100CD000302801D100227F1E002A099784D01DE010
:100CE000112D07DAFFF7B2FE303262556D1C50EA63
:100CF0000102F5D1084302D00098C8B10EE00021EE
:100D0000681E05E0235C625C63542254401E491C4B
:100D10008142F7DBAB46A81B401E0990002004F877
:100D20000B000B98099AC0F80880C0E9002B7AE7FD
:100D300011264FF0000857E72DE9F04F884604468A
:100D4000D21D22F0070191B0D1E90001CDE90A01DD
:100D500005F0F6FD02460B98C00F01D02D2007E0EC
:100D60002068810701D52B2002E0202101EAC00084
:100D7000032A099001D0072A05DB03464146204695
:100D800000F014FB0BE12078800601D5E06900E05B
:100D90000620B8F1650F814606D0B8F1660F18D06D
:100DA000B8F1670F70D131E00020B9F1110F009058
:100DB00001DB112301E009F101030AAA01A90CA832
:100DC000FFF7E2FEDDE90C70002609F1010583461C
:100DD00047E001204B4600904FF000470AAA01A9C6
:100DE0000CA8FFF7D1FEDDE90DB00C995D46002699
:100DF00010B909F101000D18B9EB050003D4C0F1D9
:100E0000FF3609F10105A5EB09002BE0B9F1010F4F
:100E100001DA4FF001090020B9F1110F00904846A6
:100E200001DD112300E003460AAA01A90CA8FFF77F
:100E3000ABFEDDE90C704D460026834620780007A6
:100E40000AD4AB4500DA5D4601A8012D04DD411945
:100E500011F8011C302907D04F4502DA17F1040FB1
:100E600004DA012082460FE06D1EEEE7002F02DC5F
:100E7000ED1B3E4403E0781CA84200DD7D1CB81B3E
:100E800000F1010A4FF000472078000703D4AA457B
:100E900001DB4FF0FF3A0021B7F1004F0DF143089D
:100EA0008DF8431024D002202B23002F01DA7F423B
:100EB0002D230A21021EA0F1010000DC5FB197FB87
:100EC000F1FC97FBF1F201FB1C7C17460CF1300C96
:100ED00008F801CDEEE7A8F10100037021880905AB
:100EE00001D5452100E06521A0F1010800F8011CB1
:100EF00009980FA9A1EB0807FF1D00B101204119B6
:100F000001EBEA70A1693844081A401EA0612078FC
:100F1000C00602D42046FFF7DFFA099828B1D4E9C9
:100F200001219047206A401C20622078C00622D50B
:100F30002046FFF7D1FA1EE0002E04DBB34502DDA8
:100F400001A8805D00E03020D4E901219047206AAB
:100F5000401C2062761CAAF101005FEA000A0AD157
:100F600000F020FAC0680168405CD4E90121904794
:100F7000206A401C2062281EA5F10105DCDC07E088
:100F8000D4E9012118F8010B9047206A401C206227
:100F9000381EA7F10107F3DC2046FFF7B3FA032060
:100FA00011B041E62DE9F04F04460D46D21D22F066
:100FB000070089B0D0E900974846394605F0C0FCE3
:100FC0000246F80F01D02D2307E02068810701D5E4
:100FD0002B2302E0202101EAC0038DF820300BB161
:100FE000012000E00020032A824601D0072A04DB0A
:100FF0002946204600F0DAF93FE12078800601D446
:101000000D2500E0E569C7F30A560D2D49DA0021E8
:101010004FEA175B08464FF00000002F00F4400035
:1010200007DA00EB80004FF4400100EBD07001EADA
:1010300060008115012901DD4FF0FF3100224FEAE8
:10104000850CBCF1180F06D31346ACF118004FF015
:101050008052C24003E04FF4801323FA0CF30CF1EA
:101060000C0CBCF1200F04D3ACF1200C09FA0CF0ED
:1010700001E007FA0CF000294FF0004801DD18B933
:101080000FE00ED140450CD319EB02095F4121B9A5
:10109000404502D19F4329EA0209BBEB175F00D00C
:1010A000761C2088000502D57B48784402E07A4807
:1010B0007844193808AA302302F80A30037C0AF170
:1010C0000101002E0AF1020A53546A4602DC4FF075
:1010D000300101E04FF031014FF001088DF80010B0
:1010E00002D0A6F2FF3603E059EA470100D06B4E6A
:1010F000002D02DC2178090704D54FF002082E21CB
:101100008DF80110C44600210BE0C7F303433F01F3
:10111000C35C491C6D1E02F80830052908F101085E
:1011200001DA002DF1DC00210CE000EB1973491C01
:101130001B786D1E082902F808304FEA091908F1DA
:10114000010801DA002DF0DC21688B0602D516E0DB
:10115000A8F10108E04505DD02EB080313F8013CA6
:10116000302BF5D0B8F1000F09DD02EB080313F8BE
:10117000013C2E2B03D1090701D4A8F10108002D51
:1011800005DD3E2102F808106D1E08F10108407CC3
:10119000002E02F8080008F1010804DA2D2076423A
:1011A00002F8080002E02B2002F808000A214FF4A0
:1011B0007A70864208F101080BDB96FBF0F33033BE
:1011C00002F8083096FBF0F308F1010800FB136603
:1011D00001E0642E0CDB642096FBF0F3303302F860
:1011E000083096FBF0F308F1010800FB136601E0FC
:1011F0000A2E06DB96FBF1F0303002F8080008F109
:10120000010896FBF1F001FB1060303002F8080095
:10121000A16908F1010808EB050202EB0A00081AAF
:10122000A0612078C00602D42046FFF755F9216A54
:1012300008AE01EB0A00206204E0D4E9012116F8AF
:10124000010B9047BAF1010AF7D22078C00602D507
:101250002046FFF741F96E4609E016F8010B3E28DB
:101260000FD0D4E901219047206A401C2062B8F1D8
:101270000108F2D22046FFF745F909B00320BDE886
:10128000F08F206A2844206203E0D4E90121302055
:1012900090476D1EEBD3F8E7F662000002FCFFFFFB
:1012A00010B5436913B1AFF3008001E0FFF74DF9CA
:1012B000012010BD127800F124010A7000224A704A
:1012C0000122EDE711684FF0FF32E9E710B54369FD
:1012D00013B1AFF3008001E0FFF7D6F9012010BD94
:1012E000128800F1240182840022C2840122EDE7E9
:1012F00011684FF0FF32E9E72DE9F04116460C4640
:10130000054600F047F8036893F80101012807D06B
:10131000FF2C12D8185D80B101202C70BDE8F0813F
:10132000D3F807013246214603F20713C7182846AF
:10133000BC46BDE8F041002360474FF0FF30EDE7C9
:1013400000487047800100207546FFF7F9FFAE4660
:1013500005006946534620F00700854618B020B5C1
:10136000FEF7ECFFBDE820404FF000064FF000070D
:101370004FF000084FF0000BAC46ACE8C009ACE8F9
:10138000C009ACE8C009ACE8C00921F007018D46EE
:101390007047000010B500F005F8001D10BD00BF3B
:1013A0000D56000000487047A00100202DE9F041D3
:1013B0001F46044603260168072A01F4006004DB87
:1013C00008B116A505E016A503E008B115A500E0D3
:1013D00015A521F010002060A069C01EA0610FB10A
:1013E000401EA0612046FFF777F84FB1D4E90121F4
:1013F00038469047206A401C2062C01C206206E0EC
:10140000206AFAE7D4E9012115F8010B9047761E0E
:10141000F8D22046FFF776F8BDE8F0814E414E0045
:101420006E616E00494E4600696E66002DE9F04718
:10143000814616468AB0354878440DC88DE80D00BF
:1014400032487844801C03AC0DC884E80D0041F696
:101450009B300844372190FBF1F290FBF1F5A5F1A8
:10146000800501FB12041B3C02D56442012000E010
:101470000020DFF898A080460027FA44AAF1BE0AAF
:101480000EE0E0070AD03246684607EB4701012329
:101490000AEB810105F01DF98DE8070064107F1C3F
:1014A000002CEED1194F7F44AE3F19E0E80715D06C
:1014B00007EB04100DF1180A90E80E008AE80E0000
:1014C000C068F04201D1981908903246012306A95C
:1014D00003A805F0FEF803AB83E807006D10641C59
:1014E000002DE3D14FF0010332466946B8F1000FF9
:1014F00003A802D005F0D8F801E005F0EAF8C9E940
:101500000001C9F808200AB0BDE8F087F85F0000C4
:1015100010B50446AFF300802046BDE81040FEF74A
:10152000F8BE00000000000030B44FF0013C50F85D
:10153000042B51F8043BCCFA52F4D51A20D1FCB953
:1015400050F8042B51F8043BCCFA52F4D51A17D1B9
:10155000B4B950F8042B51F8043BCCFA52F4D51A24
:101560000ED16CB950F8042B51F8043BCCFA52F46C
:10157000D51A05D1002CDAD030BC4FF000007047EE
:1015800029BAB1FA81F111F01801D1F1200084409B
:10159000F2D1CA40CB4012F0FF0213F0FF0330BC7F
:1015A000D01A704701491820ABBEFEE726000200A2
:1015B0007047000080B50146806B036C026C13F02D
:1015C000500F06D0D2060FD4806BC26C08469047ED
:1015D00080BD42F40071016401688A6812F0405FC6
:1015E00005D000F0A1FB80BD00F0A2FB80BD027E13
:1015F000002AF6D1CA6A12F4700F02D08A68520526
:10160000EFD44A6822F020024A60016C21F4807114
:101610000164016CC904E4D4016C41F0010101646E
:1016200000F082FB80BD000080B5806B402101642A
:10163000416C41F00401416400F07AFB80BD000080
:1016400080B5806B00F072FB80BD000000000000E0
:10165000B0B540F2E010C2F20000008805F0F0FBE7
:101660009FED210B53EC102B05F0FEFB9FED200BA3
:1016700053EC102B05F0F8FB044641F60460C2F26F
:10168000000000680D4605F0DBFD9FED1B0B53ECE1
:10169000102B05F07BFA02460B462046294605F042
:1016A000CDF905F099F900EE100A02F06BFA41F657
:1016B0000C64C2F20004204684ED000A04F0FEFC33
:1016C00041F61C60C2F2000080ED000A10EE100A24
:1016D00084ED010A05F0B4FD024609A00B4604F0B2
:1016E0004BFDB0BD00BF00BFCCCCCCCCCCCC33408C
:1016F000000000000000303F00000000000059C062
:1017000025660D0A0000000080B541F6B400C2F263
:10171000000000F00FFB80BD10B542F20432C4F2AD
:101720000102116821F440311160D2F800C090E844
:101730000A4043EA0C03C46813604A6822F48072CA
:101740004A6002694B6843EA02224A604A6822F012
:1017500040724A604A6842EA0E024A608A6822F48D
:1017600000628A608A6822438A60826A8B680124E8
:1017700023F070638B608B68C0F60074A24202D1C4
:1017800023F0405208E01A438A608A6822F04052EF
:101790008A60C26A8B681A438A608A6822F00202F1
:1017A0008A608A68037E90F8204042EA43028A6099
:1017B0004A6884B142F400624A604A684EF200030B
:1017C00022F460424A60426ACFF6FF734C6803EB32
:1017D0004232224301E022F400624A60CA6A40F2C7
:1017E000000C22F47002CA62C3694269CFF6F07C31
:1017F000CC6A0CEB03532343CB628B6823F4007356
:101800008B6090F830008B6843EA402088608868DD
:1018100020F480608860886840EA8220886010BD7B
:10182000FEE70000002070470020704710B541F22D
:10183000E454C2F2000441F2F811C2F20001204661
:10184000002203F001F840F61061C2F200012046C8
:1018500002F0F0FF002010BD10B541F2E454C2F2D6
:1018600000040146204602F0E5FF204602F0C4FFD6
:10187000002010BD0020704710B541F2E452C2F2C2
:101880000002D2F8BC22D2F81432002B1CBF012077
:1018900010BD41F2E454C2F200040A46014620465B
:1018A00002F0D2FF204603F061F810BD80B541F68A
:1018B000FC00C2F2000000F029FC80BDD0F800C09E
:1018C0006FF00F024AF6AB2352FA8CF2CAF6AA2343
:1018D0000146A2FB0330000905A31B5C40F2FF3068
:1018E0002CEA00005F2A88BF0430C1E91603704764
:1018F00000061016000610168269816AB2F5005FB4
:1019000006D06AB9022912D0012914D0D1B90EE04B
:10191000032917D8DFE801F0020B020F01207047FE
:1019200003293CBF012070471CBF00207047C06ADC
:10193000C0F300607047C06AA0F1C070B0FA80F0D8
:10194000400970470020704780B5D0F800C0D0F83B
:1019500008E0DCF80000BEF1400F20F48020CCF855
:1019600000000846CCF8043004BF10460A46CCF804
:101970000800CCF80C2080BD704700002DE9F04F26
:1019800089B015460291044600F0ECF8834600F059
:10199000E3F8069000F0ECF87F2C214601940590C6
:1019A0005CDC02983F2859DC01990BEB8B00084462
:1019B000012853DB029800EBCB0001284EDB47F2F5
:1019C0005C4105EB8500C0F6000108440090DDE9AC
:1019D000051000244840049004E000BF039C01343B
:1019E000062C3BD0052C01D1002104E000982044B6
:1019F00004F0C0FB01460198DDF8089004FB0B0AD7
:101A00000020039407E000BF0798089901304910AF
:101A10000828D944E2D0CDE90701C807DDE9050768
:101A200008BF07460498384318BFBBF1000FEBD03E
:101A3000002502E001355D45E6D0BBF1000FF9D08D
:101A40000AEB05045E46C846204641463A4602F087
:101A500089FC013E08F10108F6D1EBE709B0BDE8C9
:101A6000F08F00002DE9F04F81B01C4691468A4668
:101A7000074600F077F8D4B300EB4000611E450044
:101A800000264FF0000B4FF0000800910FE000BF60
:101A90004FF0010840F03000C2B238465146FFF71F
:101AA0006DFF01360BF1010BB4422F441FD06FEADA
:101AB0000B002044C1B20A2004F050FBB9FBF0F047
:101AC0004CF6CD41CCF6CC41A0FB0112D10801EB84
:101AD0008101B8F1000FA0EB4100DBD10099B142C8
:101AE000D8DD0028D4D1384651463022D7E701B09E
:101AF000BDE8F08F2DE9F04F81B093468A468046CD
:101B000000F030F800EB40014E004FEAC00900251C
:101B10005FFA8AF7444600BFE8B21BF8002062B1C2
:101B20000A2A07D0E0B23946FFF728FF56FA84F4B4
:101B30000135F1E7CA440135EAE701B0BDE8F08FAD
:101B400080B502F02DFB02F0C9F980BDEFF31080E3
:101B500072B600BFFEE7000040F27610C2F200004D
:101B60000078704740F27710C2F2000000787047AA
:101B700041F2E150C2F2000000787047B0B547F67C
:101B80001021C1F6FF7108688A68801808BFB0BDCF
:101B900040F25C15C2F200054C68A91C082201F055
:101BA000D5FF05F112012046042201F0CFFFB0BDA0
:101BB0007047000010B590F83C20012A04BF0220B5
:101BC00010BD012280F83C20026891F810C05368D3
:101BD000BCF1010F23F0400308BF40335360D2F83B
:101BE00004C04FF6FF53CFF63F7303EA0C03536074
:101BF000D2F804C0D1E9003E8C6843EA0C0353607C
:101C0000C2F824E09462536823F01F03536089896B
:101C1000536819435160002180F83C10084610BDFC
:101C200070B581B00022009290F83C20012A01D1C9
:101C3000022156E00E6801221FFA86FC80F83C2043
:101C40004FEA4C0212FA86F302680A2E32BF1032B3
:101C50001E3B0C324FF0070E15680EFA03F4A54335
:101C600015608D68146805FA03F32343136049680F
:101C7000062906D8026801EB8101053902F1340317
:101C80000AE00C2901EB8101026887BF413902F1AA
:101C90002C03233902F130031F221C688A4024EAF6
:101CA00002021A601A680CFA01F1114342F2043E72
:101CB0001960C4F2010E0168122EAEF5417208BF20
:101CC000914205D1DEF8003043F48003CEF80030B5
:101CD00026F00103102B08BF914205D0002180F8A7
:101CE0003C10084601B070BDDEF80010102E41F423
:101CF0000001CEF80010F1D140F21C01C2F2000147
:101D000009684DF68362C4F21B32A1FB0212910CEA
:101D100001EB8101490000BF009100990029DDD04D
:101D200000990139F8E70000704700007047000093
:101D300070470000B0B50446006802684168920729
:101D400017D511F0200114D0216CC90603D4216CE1
:101D500041F400712164816811F0405F02D1217E5D
:101D600000296FD02046FFF7DFFF20686FF01201D7
:101D70000160206802684168520714D511F08001A3
:101D800011D0216CC90603D4216C41F400512164A7
:101D9000816811F4401F28D02046FFF709FF206812
:101DA0006FF00C010160206802684168D20706D01C
:101DB00011F040011CBF00685FEAC07036D1206896
:101DC0000268416892060FD511F0806108BFB0BD6E
:101DD000616C6FF0200541F00201616405602046EE
:101DE000FFF7A6FF20680560B0BD816B11F4401FAE
:101DF00002D081684905CFD441684905CCD48168B7
:101E000011F0405FC8D1217E0029C5D1416821F081
:101E100080014160206C20F480502064206CC0055B
:101E2000BAD4206C40F001002064B5E7206C40F487
:101E300080302064204600F047F820686FF00101F0
:101E40000160BCE7C16A11F4700F03D081684905D5
:101E50003FF588AF416821F020014160206C20F4FB
:101E600080702064206CC0043FF57CAF206C40F093
:101E70000100206476E70000B0B510B30446006CA2
:101E800030B9204600F036F80020606484F83C0049
:101E9000206C0125C0060FD4206C41F2021188434A
:101EA000023020642046FFF737FC00206064206C7D
:101EB00065F3010000252064002084F83C002846DA
:101EC000B0BD0120B0BD000010B500680068C007BB
:101ED00008BF10BD40F20040C4F202000121002200
:101EE000012400F053FB40F2E210C2F20000047043
:101EF00010BD00002DE9F04186B0044642F2000713
:101F00000068C4F201070026B8420596CDE90366D1
:101F10000296019602D006B0BDE8F08143F630008B
:101F20000096C4F2020041690DF1040841F4807189
:101F300041614169032501F4807100910099009687
:101F4000016841F001010160016801F001010091A7
:101F500000990096016841F0020101600068414665
:101F600000F00200009000985F20019007F56040AB
:101F7000CDE9025600F03EFA07F564404146CDE94E
:101F80000155039600F036FA41F6FC0546F2104082
:101F9000C2F20005C4F202004FF48061C5E90006F8
:101FA00005F110004FF400624FF400534FF48077B6
:101FB0008EC02846C5E90266C5E9086600F06CF9DE
:101FC000002818BFFFF7C2FD122000210022A563E0
:101FD000AC6300F059FB122000F052FB06B0BDE8E4
:101FE000F081000070B582B004460020019094F8A2
:101FF0003C00012802D1022002B070BD13460A46FF
:102000000120216884F83C008868C00718D18868DE
:102010004DF6836540F00100886040F21C00C2F27A
:1020200000000068C4F21B35A0FB0505A80C00EBFE
:10203000400000BF0190019810B101980138F9E704
:102040008868C00503D5886820F4807088608D6832
:10205000206CED0707D140F010002064606C40F068
:10206000010060644FE040F20175A84300F5807004
:1020700020644868400504D5206C012565F30D30C7
:102080002064256C0020ED044FF0000544BF656C12
:1020900025F00605656484F83C00A06B41F2B55557
:1020A00041F2416CC0F60005C0F6000CC0E90F5CBF
:1020B00041F22965C0F60005C5646FF022050D6088
:1020C0004D6842F2000645F080654D608D68C4F2AF
:1020D000010645F480758D604C3100F045F9D6F865
:1020E00004132068C90606D0B0420CD1B16811F0C3
:1020F000405F08D103E0816811F0405F03D181683F
:1021000041F080418160002002B070BDF0B581B027
:1021100004460020009040F21C00C2F20000026859
:10212000D4E9166048F2B51337680821C1F64E337A
:1021300081403942A2FB03250CD0226813685B075B
:1021400008D5136823F004031360B160616D41F09A
:102150000101616501218140394208D0226852693C
:10216000120604D5B160616D41F002016165042180
:102170008140394208D022681268920704D5B160C4
:10218000616D41F00401616510218140394215D033
:1021900020680268120711D5B16002680168520315
:1021A00006D4C90506D4016821F00801016001E0E8
:1021B000080342D4216C09B120468847E16D2020F4
:1021C00000FA01F23A4244D020680368DB0640D5A9
:1021D000B26094F835300268052B1ED122F0160249
:1021E0000260426922F080024261226C0AB9A26C4C
:1021F0001AB1026822F0080202603F208840B060F5
:10220000012084F83500216D0020002984F8340075
:1022100040D02046884701B0F0BD0168520310D479
:10222000C90512D4016821F010010160012084F871
:102230003500002084F8340007E0A16C0029BBD1F0
:10224000BCE7080301D4616C00E0E16B09B12046F2
:102250008847606DF0B1606DC00717D0052084F825
:1022600035002068A90A026822F00102026000BF5E
:10227000009A01328A42009202D80268D207F7D14E
:10228000012084F83500002084F83400E16C09B1A5
:102290002046884701B0F0BD2DE9F041044600F02A
:1022A0007BF9C4B10546022084F83500002021687E
:1022B00084F83400086820F001000860266830685F
:1022C000C0070BD000F068F9401B0528F6D90321A0
:1022D0002022032042E00120BDE8F081306848F26E
:1022E0003F01CFF21001251D00EA010C2ECDD4E9EB
:1022F000050E41EA0C01114319432943D4E907783B
:10230000084340EA0E01606A3943042841EA0801A3
:1023100003D1D4E90B2311431943316071690428B7
:1023200021F0070141EA00050CD1D4E90A1045EA81
:10233000010538B12046FFF7DFFA18B1012140222C
:1023400001200BE020467561FFF7B8FAE16D3F22EE
:1023500002FA01F18160002201210020626584F807
:102360003510BDE8F0810000B0B5044690F83400A7
:10237000012828D0012084F83400A56D94F8350098
:1023800001281DD1022084F8350000206065204618
:10239000FFF7DAFAE26D3F23206803FA02F2216CBC
:1023A000AA60026842F01602026019B1016841F0A9
:1023B00008010160016841F0010101600020B0BD29
:1023C000002084F834000220B0BD0000B0B50446FF
:1023D00000F0E2F8054640F27810C2F20000007802
:1023E000611C18BF044400BF00F0D6F8401BA04297
:1023F000FAD3B0BD2DE9F04F83B000F13E4202F1B7
:10240000FF724FEAB22241F200070192C4F20207C2
:1024100007224FF0010E00254FF0000A4FF0000890
:10242000B84208BF042200920AE000BF08F1010888
:102430000AF1040AB8F1100F05F1020500F0A280BC
:102440000C680EFA08FB14EA0B09EFD04C6804F094
:10245000030CACF1010EBEF1010F11D80322876805
:1024600002FA05F6CA68B743AA403A438260426856
:10247000C4F3001722EA0B0207FA08F73A43426056
:10248000BCF1030F1CD0C26803238E6803FA05F762
:10249000BA4306FA05F73A43BCF1020FC2600FD106
:1024A0006FF0030202EA580202440AF01C060F23EE
:1024B000176A03FA06F40B69A743B3403B43136260
:1024C000026803234F68AB409A4307F00303AB4015
:1024D0001A4317F4403F4FF0010E0260A6D00022CD
:1024E00043F644030292C4F202031A6843F600441E
:1024F00042F480421A601A68C4F2010402F4804275
:102500000292029A28F003024FF6084B2244CFF6BB
:10251000FF7B52F80B300AF00C070F26BE4023EA6F
:10252000060C019B009E042B38BF1E4606FA07F7D7
:1025300047EA0C0342F80B3022684B6842EA09076D
:10254000DE0358BF22EA0907276062689E0342EA59
:10255000090758BF22EA09076760A268DE0242EA5B
:10256000090758BF22EA0907A76043F60C47C4F2DF
:1025700001073A689B0242EA090358BF22EA0903AD
:102580003B6053E703B0BDE8F08F0000002A08BFAE
:10259000090481617047000041F62060C2F200002A
:1025A0000068704740F2781041F62061C2F20000E6
:1025B000C2F2000100780A68104408607047000009
:1025C00080B543F60040C4F20200016841F4007196
:1025D0000160016841F480610160016841F480712B
:1025E0000160032000F060F80F2000F005F800F013
:1025F0002BF8002080BD0000B0B540F27812C2F286
:10260000000240F21C011278C2F200014FF47A730A
:102610000968B3FBF2F20446B1FBF2F1084601F09F
:1026200025F90F2C4FF001050CD858B94FF0FF30A9
:1026300021460022002500F027F840F27C10C2F26B
:10264000000004602846B0BD82B0002043F640017F
:102650000190C4F202014A6842F480424A604A682A
:1026600002F480420192019A0090086840F0805084
:102670000860086800F080500090009802B0704731
:1026800080B503F0E1FC80BD70B514460D460646EA
:1026900003F0EAFC2946224601F0CEFB0146304613
:1026A00003F0EAFC70BD000080B503F0F7FC80BDCC
:1026B00070470000026800205162704710B5D0F8E2
:1026C00000C0DCF82400D9B1DCF82830B1F1010EEB
:1026D00000EB13430CD00021002000BF0CEB810164
:1026E000D1F804410130C1B28E4503EB1443F5D853
:1026F00043EA02400CEB8E01C1F80401002010BD3A
:1027000040EA0240CCF82800002010BD80B5D0F887
:10271000040402F0C7FB80BD80B5C1EBC102D0F854
:10272000043400EB8200826C184602F031FB80BD5D
:1027300080B5C1EBC102D0F8043400EB8200D0F8C0
:102740000822184602F078FB80BD000080B5D0F862
:10275000040402F0A9FB80BD10B50446080601F090
:102760000F00C0EBC00104EB810205D402F5FE713D
:10277000002382F8FD3104E0012302F13C0182F8DC
:102780003D3094F8BC230870012A04BF022010BD1C
:102790002068012284F8BC2302F04CFF002084F85A
:1027A000BC0310BDB0B54268044601F00F00904272
:1027B00084BF0120B0BD090609D4C0EBC00104EB01
:1027C000810202F5FE71002382F8FD3108E0C0EBC2
:1027D000C00104EB8102012302F13C0182F83D308B
:1027E00094F8BC230025012A8D70087004BF0220D4
:1027F000B0BD2068012284F8BC2303F0E9F8284624
:1028000084F8BC53B0BD000001F00F01C1EBC10161
:1028100000EB8100D0F8140270470000B0B5054607
:10282000080601F00F00C0EBC00105EB810C05D4D8
:102830000CF5FE7100248CF8FD4104E001240CF13C
:102840003C018CF83D404C780870002C8A60CB70BD
:1028500018BFC880022B04BF0020087195F8BC0384
:10286000012804BF0220B0BD2868012285F8BC23DE
:1028700002F022FE002085F8BC03B0BD10B501F0C7
:102880000F0CCCEBCC0100EB81044FF0000EC4F830
:1028900014E284F8FDE1D0F810E0C4F80822C4F88E
:1028A0001032BEF1010F84F8FCC108BFC4F80C223D
:1028B000006804F5FE715FFA8EF2BCF1000F03D0E0
:1028C00003F0D6F8002010BD02F0D6FF002010BDA6
:1028D000B0B50446406801F00F05854284BF012071
:1028E000B0BD080609D4C1EBC10004EB800000F5BF
:1028F000FE71002280F8FD2108E0C5EBC50004EB65
:102900008000012200F13C0180F83D2094F8BC03D6
:10291000012201288A700D7004BF0220B0BD20681A
:1029200084F8BC2303F07CF82DB92068217C04F5E1
:10293000717203F01FF8002084F8BC03B0BD0000E2
:10294000B0B501F00F0CCCEBCC0100EB81052946B2
:1029500001F83CCF0024D0F810E08C6101244C70C9
:10296000CA60BEF1010F4B6108BFEA6400685FFAFC
:102970008EF2BCF1000F03D003F07AF80020B0BD56
:1029800002F07AFF0020B0BD2DE9F04F81B0D0F801
:1029900000908246484603F08BF910B101B0BDE8C3
:1029A000F08FDAF8000003F0B1F90028F6D0DAF879
:1029B000000003F0ABF9800705D5DAF800004169A3
:1029C00001F002014161DAF8000003F09FF9C0064E
:1029D00041D5DAF80000816921F010018161D9F850
:1029E0002040C4F34340062804F00F051CD0022801
:1029F0002BD147F6F070044027D0C5EBC5000AEB99
:102A00008005D5F808122209484603F083F9D5F865
:102A10000802D5F8141200EB1410C5F8080201EBF7
:102A20001410C5F8140210E00AF571714846082226
:102A300003F070F9C5EBC5000AEB8000D0F8141262
:102A4000C4F30A121144C0F81412DAF800008169C4
:102A500041F010018161DAF8000003F057F900033A
:102A60003CD5DAF8000003F02FF9B8B3064609F5B3
:102A700030654FF000084FF0010B002715E000BF54
:102A8000E00644BF1020A860A00644BF2020A86034
:102A9000A00444BF4FF40050A8600137B8EB560FB4
:102AA0004FEA560605F1200518D0F007F5D0DAF800
:102AB0000000F9B203F022F90446C00705D05046E1
:102AC0003946C5F808B001F099FA2007D8D5082092
:102AD000A8605046394601F06BFAD1E7DAF80000F9
:102AE00003F014F9400364D5DAF8000003F0E4F8C9
:102AF00000285ED006460AF5717009F510640AF1E7
:102B000044080025002700900AE000BF0137B5EB1C
:102B1000560F4FEA560604F1200408F11C0848D06D
:102B2000F007F3D0DAF800005FFA87FB594603F0AC
:102B3000D3F80546C00723D007F00F00D9F83418A2
:102B4000012202FA00F021EA0000C9F83408A2606C
:102B5000DAF8100001280FD1D8E900010844C8F8BC
:102B600004004FB9D8F80C0030B9DAF80000009A28
:102B7000012102F0FFFE00BF50465946FFF7CCFD91
:102B8000280744BF0820A060E80644BF1020A060CA
:102B9000680644BF4020A060A80744BF0220A06090
:102BA00028064FF00005B1D55046394601F08EFA9F
:102BB000ACE7DAF8000003F0A9F8B0F1FF3F1ADC47
:102BC000D9F8040820F00100C9F804089AF8F403C1
:102BD000012807D100208AF8F40350460021FFF7AE
:102BE00067FD02E0504600F0FDF9DAF800004169A7
:102BF00001F000414161DAF8000003F087F80005B8
:102C00000CD5D9F80808C00702D0504600F034FAB5
:102C1000DAF80000416901F400614161DAF800006E
:102C200003F074F8C00460D5D9F80408102120F02E
:102C30000100C9F80408DAF8000009F5006403F09F
:102C400011F8DAF8040018B3DAF8041009F5106086
:102C500000224FF67F3300BF83600768013227F4FC
:102C60000017076007688A4247F000670760C0F8EE
:102C70000832D0F8007227F40017C0F80072D0F8BC
:102C8000007247F00067C0F8007200F12000E3D343
:102C9000E06940F00110E061DAF8300040B1D4F8AA
:102CA000840040F00B00C4F8840004F1440006E006
:102CB000606942F22B010843606104F11000016871
:102CC0000AF5717241F00B010160206820F4FE608A
:102CD0002060DAF800009AF8101002F04BFEDAF8E3
:102CE0000000416901F480514161DAF8000003F00D
:102CF0000DF880041CD5DAF8000002F029FCDAF89F
:102D0000000002F0C7FFDAF80040CAF80C0000F03B
:102D10007DFA9AF80C200146204603F06FF85046E1
:102D200000F04EF9DAF80000416901F40051416108
:102D3000DAF8000002F0EAFF000708D5504600F07C
:102D400057F9DAF80000416901F008014161DAF849
:102D5000000002F0DBFFC00209D55046002100F060
:102D60003DF8DAF80000416901F480114161DAF8B8
:102D7000000002F0CBFF800209D55046002100F090
:102D800033F8DAF80000416901F400114161DAF822
:102D9000000002F0BBFF400008D55046FFF7B6FC2C
:102DA000DAF80000416901F080414161DAF8000081
:102DB00002F0ACFF40077FF5F1ADDAF8000044689F
:102DC000600702D55046FFF7C1FCDAF80000416801
:102DD0002143416001B0BDE8F08F000080B5D0F81C
:102DE000040402F0BBF880BD80B5D0F8040402F002
:102DF000C5F880BD2DE9F04F8BB098B30446056847
:102E000090F8BD0328B9002084F8BC03204600F0E8
:102E100093F8032084F8BD03E86BC0055CBF002075
:102E20002061206802F020FD206804F11C0A0A904D
:102E3000D4E90C5004F1040E9AE8C0079EE80E583D
:102E4000CDE9085003A880E8C0030A988DE800582F
:102E5000CDF81CA002F08CFB30B1022084F8BD0339
:102E6000012564E0012562E020680021002502F0D0
:102E700077FF6168C1B1616801200023002200BFB3
:102E8000C3EBC30304EB830787F83C20D3B20132C2
:102E9000A7F84230D3B2994287F83D0087F83F50F7
:102EA000C7E911553D65EBD8A1B1002000230022F0
:102EB000C3EBC30304EB830787F8FC210132D3B2D1
:102EC000994287F8FD0187F8FF01C7E98100C7F83B
:102ED0001002EDD8A06822680A90D4E90C5004F1E1
:102EE000140E04F1240AD4E903379EE840589AE806
:102EF0000007CDE9085002A880E8005810460A9A59
:102F0000CDE90076CDE90589CDF81CA002F0FCFBE7
:102F100020B1022084F8BD03012508E0002501202E
:102F200084F8385084F8BD03206802F0DDFB2846A1
:102F30000BB0BDE8F08F0000B0B586B0006800248B
:102F4000B0F1A04F0594CDE903440294019401D05F
:102F500006B0B0BD43F630050094C4F202052868FF
:102F600001A940F001002860286800F001000090ED
:102F700000984FF4C05001900220CDE902040320D4
:102F800004900A2005900020C4F20200FFF732FAF4
:102F90006868002140F08000686000946869002241
:102FA00040F480406861686900F4804000900098B7
:102FB0004320FFF769FB4320FFF762FB06B0B0BD7B
:102FC00010B50446C068022818BFFEF7BFFDD4F84C
:102FD0000404012102F042F8D4F8040401F0F2FFE5
:102FE00010BD000080B5D0F8040402F01DF880BDCB
:102FF00080B5D0F8040402F021F880BD10B5044675
:1030000090F8BC03012804BF022010BD012084F801
:10301000BC0384F83810206802F0D6FE002084F843
:10302000BC0310BD80B5D0F8042400F571711046C2
:1030300002F020F880BD000010B5044690F8BC03F3
:10304000012804BF022010BDA16A206801220129C5
:1030500084F8BC2306D1A169012903D0816B41F416
:103060008031816302F0DEFD206802F02DFB00203C
:1030700084F8BC0310BD000010B50446D0F8040469
:1030800002F034F82068D0F8001E41F00101C0F8C9
:10309000001E206A002808BF10BD4EF61050CEF268
:1030A0000000016841F00601016010BD2DE9F0410A
:1030B000002800F08B8043F60808C4F2020804469A
:1030C000D8F8F8030D4600F00700884207D288F8C8
:1030D000F853D8F8F80300F00700A84276D120682A
:1030E000810717D5410705D5D8F8001041F4E05104
:1030F000C8F80010010705D5D8F8001041F4604168
:10310000C8F80010D8F80010A26821F0F0011143AF
:10311000C8F80010C0073FD1D8F8F80300F0070046
:10312000A84207D988F8F853D8F8F80300F0070048
:10313000A8424BD12068410707D5D8F80010E268B3
:1031400021F4E0511143C8F80010000708D5D8F861
:103150000000216920F4604040EAC100C8F8000086
:1031600000F05AF8D8F8001047F24C42C1F30311AE
:10317000C0F60002515C40F21C0220FA01F140F25C
:103180007C10C2F200000068C2F200021160FFF77A
:1031900033FA0020BDE8F0816068811E022907D261
:1031A00058F8081C89015CBF0120BDE8F08110E0DF
:1031B000012807D158F8081C89035CBF0120BDE82D
:1031C000F08106E058F8081C890702D40120BDE808
:1031D000F081D8F8001021F003010843C8F800007E
:1031E000FFF7DAF9064641F2883700BFD8F8000049
:1031F000616800F00C00B0EB810F8DD0FFF7CCF9C7
:10320000801BB842F2D90320BDE8F08140F21C00D7
:10321000C2F200000068704710B543F60404C4F21F
:103220000204606800F00C0008280AD0042819BFC6
:1032300042F20040C0F2F40047F64000C0F27D10B8
:1032400010BD206821682368490247F64001C0F29A
:103250007D1100F03F02C3F388105CBF42F20041D1
:10326000C0F2F401A1FB00010023FDF779F8216809
:103270000222C1F3014102EB4101B0FBF1F010BDAC
:103280002DE9F04182B0002800F0A28004460078C9
:1032900043F60006C007C4F2020643D0B06800F04F
:1032A0000C00042805D1306880033BD56068C8BB9A
:1032B0008EE0B06800F00C00082802D1706840026F
:1032C000F1D46568B5F5A02F0AD0B5F5803F0BD0D5
:1032D000306820F480303060306820F4802006E0D0
:1032E000306840F480203060306840F480303060D6
:1032F000FFF752F9002D054611D000BF306880035A
:1033000010D4FFF749F9401B6428F7D922E100BF28
:10331000FFF742F9401B64284FF0030055D830688E
:103320008003F5D4207880071AD5B06810F00C0F10
:1033300009D0B06800F00C00082840F08A8070685E
:10334000400200F186803068800702D5E0680128DD
:103350003ED13068216920F0F80040EAC1003060B9
:103360002078000738D4207840074CD4A5695DB395
:10337000B06800F00C00082840F09E80012D27D096
:103380007068E16900F480028A4221D1216A00F06C
:103390003F028A421CD147F6C071626A0140B1EB1C
:1033A000821F15D1A26A0023CFF6FF7303EBC2324E
:1033B00000F440316FF30F02914209D1E16A00F04D
:1033C0007060B0EB016F03D1002002B0BDE8F08166
:1033D000012002B0BDE8F0816069002840F20000E1
:1033E000C4F2472057D00121C0F8801EFFF7D4F85F
:1033F000054600BF706F8007B5D4FFF7CDF8401BBE
:103400000228F7D9A6E0306C10F080580AD10020CD
:103410000190306C40F080503064306C00F080508F
:103420000190019847F20007C4F200073868C00510
:1034300024D4386840F480703860FFF7ADF8054652
:103440003868C0051AD4FFF7A7F8401B0228F7D93F
:1034500080E0E068002851D00020C4F2472001211C
:103460000160FFF799F80546306880073FF571AFB6
:10347000FFF792F8401B0228F6D96BE0A568052DEE
:1034800050D0012D52D0306F20F001003067306FE6
:1034900020F004004DE00021C0F8801EFFF77CF80A
:1034A000054600BF706F80077FF55DAFFFF774F8CA
:1034B000401B0228F6D94DE00027C4F24727002020
:1034C0003866FFF769F8022D05460BD13068800198
:1034D00058D5FFF761F8401B02284FF00300F5D9DB
:1034E00073E700BF306880017FF56EAFFFF754F8D7
:1034F000401B02284FF00300F4D966E70020C4F215
:10350000472000210160FFF747F805463068800733
:103510007FF526AFFFF740F8401B02284FF003006D
:10352000F4D952E7306F40F004003067306F40F05C
:1035300001003067FFF730F8002D054641F288376B
:1035400014D000BF306F800713D4FFF725F8401B5D
:10355000B842F7D9032002B0BDE8F081FFF71CF8AC
:10356000401BB8424FF003003FF62FAF306F80078B
:10357000F4D4B8F1000F7FF4F9AE306C20F0805035
:103580003064F3E604F11C052FCD08430021CFF68B
:10359000FF7140EA821001EBC3316FF30F0140EA83
:1035A00005600843706001203866FEF7F5FF0446A9
:1035B000306880013FF508AFFEF7EEFF001B0228E0
:1035C0004FF00300F4D900E770B538B10446406A03
:1035D00030B10020206104F1140007E0012070BD2B
:1035E0006068B0F5827F03D004F11C000021016007
:1035F0000026A66294F8510020B9204684F8506055
:1036000000F03CF8022084F8510094E80F0001F427
:103610008271056802F4044225F0400505601144FA
:1036200003F400622369114403F002026369114448
:1036300003F00102A369E569114403F40072114427
:1036400005F03802256A114405F08002A56A11438D
:1036500005F4005211430160626A042101EA13413A
:1036600002F0100211444160C16921F40061C1619E
:103670000120666584F85100304670BD80B586B083
:1036800043F200010068C4F2010100228842059261
:10369000CDE903220292019201D006B080BD43F62B
:1036A00030000092C4F20200436943F48053436146
:1036B000436903F480530093009B0092036843F036
:1036C00001030360006800F0010000900098A02052
:1036D00001900220CDE9020203200490052005900C
:1036E00001F5504001A9FEF785FE06B080BD00003F
:1036F0002DE9F04381B0044690F85000012803D131
:10370000022001B0BDE8F0834FF001091D461646C6
:103710000F4684F85090FEF73FFF94F851100129AE
:103720005DD18046002F4FF0010018BF002E00F041
:103730009580032084F85100002060652763A686E9
:10374000E686A063A087E087A168C4E91000B1F510
:10375000004F08D12068016821F040010160016834
:1037600041F48041016020680168490603D4016882
:1037700041F0400101606168731EE268B1FA81F1B5
:10378000B3FA83F349095B09B2F5006F41EA03011B
:1037900027D139B1216B0988C160B81C2063E08E44
:1037A0000138E086E08E002841D06E1C0AE000BFA0
:1037B000216B31F8022BC2602163E08E0138E08674
:1037C000E08EA0B3206881688907F1D4FEF7E4FE9B
:1037D000002EF5D0A0EB0800A842F1D325E002208E
:1037E0003CE039B139780173206B01302063E08E01
:1037F0000138E086E08ED0B16E1C0AE0216B0978BA
:103800000173206B01302063E08E0138E086E08E8A
:1038100068B1206881688907F0D4FEF7BDFE002EEC
:10382000F5D0A0EB0800A842F1D3032016E0204613
:103830002946424600F0DEFC00281CBF20206065BF
:10384000A06838B9002000902068C16800918068A5
:1038500000900098606D002818BF0120002184F8B6
:10386000519084F8501001B0BDE8F08380B500F0AD
:10387000DFFD80BD7047000070470000002804BFD6
:103880000120704710B5044690F83D0028B900208B
:1038900084F83C00204600F01FF8022084F83D0028
:1038A0002068211D00F044FE012084F8460084F8C1
:1038B0003E0084F83F0084F8400084F8410084F81A
:1038C000420084F8430084F8440084F8450084F8FA
:1038D0003D00002010BD000080B582B0006844F6B5
:1038E0000001C4F20101884201D002B080BD002075
:1038F000019043F64400C4F202000168002241F442
:10390000802101600068002100F48020019001986E
:103910001A20FEF7B9FE1A20FEF7B2FE02B080BDF3
:1039200090F83D1001291CBF01207047022180F84A
:103930003D10006840F6FF32C168C4F200029042B8
:1039400041F00101C1600FDCB0F1804F1DD040F2A9
:103950000041C4F20001884217D040F60001C4F2D1
:103960000001884211D017E040F60041C4F2000186
:1039700088420AD044F20001C4F20101884204D016
:103980000021C4F20101884206D1816801F00701DB
:10399000062904BF00207047016841F00101016061
:1039A000002070477047000010B5044600680169A8
:1039B000890744BFC1685FEA817138D42068016912
:1039C000490744BFC1685FEA41713CD4206801697E
:1039D000090744BFC1685FEA017141D420680169E9
:1039E000C90644BFC1685FEAC16145D42068016966
:1039F000C9071CBFC1685FEAC1714AD1206801696B
:103A0000090644BFC1685FEA016149D420680169C1
:103A1000490644BFC1685FEA416148D42068016932
:103A2000890644BFC1685FEA816147D410BD6FF069
:103A300002010161012121778069800745D020467C
:103A4000FFF7B0FF47E06FF0040101610221217729
:103A5000806910F4407F41D02046FFF7A3FF43E088
:103A60006FF00801016104212177C06980073ED011
:103A70002046FFF797FF40E06FF010010161082139
:103A80002177C06910F4407F3AD02046FFF78AFFC3
:103A90003CE06FF001010161204600F03FF8ADE726
:103AA0006FF0800101612046FFF7E4FEAEE76FF0A2
:103AB00040010161204600F041F8AFE76FF02001BE
:103AC00001612046FFF7D8FE10BD204600F022F825
:103AD000204600F021F8002020776FE7204600F014
:103AE00019F8204600F018F8002020776EE72046ED
:103AF00000F010F8204600F00FF8002020776DE766
:103B0000204600F007F8204600F006F80020207755
:103B10006CE70000704700007047000080B541F678
:103B2000BC50C2F200000068C168C90708BF80BD70
:103B30006FF00101016100F031FA80BD70470000B3
:103B4000FEE7000080B5FDF7FBFF80BD10B5002A41
:103B500008BF10BD02394FF0370C4FF0000E00BF08
:103B60000CEB1074B0F1204F4FEA107338BF03F123
:103B7000300401F8024F0001013A81F801E0EFD171
:103B800010BD000040F2E410C2F2000090ED001AF7
:103B90009FED052A30EE410A20EE020A31EE000ABE
:103BA00080ED000A704700BF72F97F3F80B5FFF7D4
:103BB000C9FF80BDB0B58AB041F6B400012300242E
:103BC000C2F2000042F20001C0F60073C4F201012B
:103BD0000125C0E90A340223CDE90844CDE90644B1
:103BE000CDE90444CDE90244CDE900444FF48032EC
:103BF000057680F82040C36180F8305080E81600D8
:103C0000C0E903454461FEF737F9002818BFFDF706
:103C10009DFF40F20020C0F28000049040F2D940A5
:103C2000CDE9050441F6B400C2F2000004A90794EE
:103C30008DF82050FDF7BEFF002818BFFDF786FF66
:103C400000200090012001900720029041F6B4006E
:103C5000C2F200006946FDF7E3FF002818BFFDF738
:103C600075FF0AB0B0BD000080B582B000200190A1
:103C700043F63000C4F202000168002241F48001E2
:103C800001600068002100F4800001900198382054
:103C9000FEF7FAFC3820FEF7F3FC02B080BD00000E
:103CA0002DE9F04387B0002743F630000697CDE9B1
:103CB0000477CDE902770197C4F20200016840F26F
:103CC000000941F0800101600168C4F2020901F0BD
:103CD0008001019101990197016809F5806541F022
:103CE000010101600168002201F0010101910199C7
:103CF000019701681C2641F00201016000681C2147
:103D000000F00200019001982846FEF73FFC48466B
:103D10004FF4E06100224FF4E068FEF737FC0296B2
:103D200002AE012428463146CDE903470597FEF748
:103D300061FB48463146CDE90284CDE90477FEF7C0
:103D400059FB07B0BDE8F08380B541F6645043F2FB
:103D50000001C2F20000C4F201014FF4827200239C
:103D60004FF4007C80E80E000A21C0E90333C0E96B
:103D7000053CC361C0E90833C0E90A31FFF724FC00
:103D8000002818BFFDF7E2FE80BD000080B541F6B7
:103D9000BC5044F60001C2F20000C4F201015322FB
:103DA000002340F2E73C80E80E108021036181612E
:103DB000FFF764FD002818BFFDF7C8FE80BD0000B6
:103DC00080B541F2E45040F20001C2F20000C2F2BC
:103DD0000001002200F0B4FF002818BFFDF7B6FE76
:103DE00041F2E45040F22001C2F20000C2F20001B0
:103DF00001F0A2F9002818BFFDF7A8FE41F2E45037
:103E000040F24411C2F20000C2F2000100F00AFDCB
:103E1000002818BFFDF79AFE41F2E450C2F20000FC
:103E200001F038FA002818BFFDF790FE80BD0000B1
:103E3000FEE70000FEE7000000F0070080F0070347
:103E4000042B28BF04234FF0FF3C03380CFA03F384
:103E500038BF0020994381400CFA00F022EA0000AC
:103E600008437047B0B50024A4F15000C0B202F07E
:103E7000A7F80020002502F0A3F8102002F0A0F817
:103E8000002002F0BFF8681C45B2B5F1FF3FF7DC37
:103E9000E0B20134072828BFB0BDE5E770B504469D
:103EA000002500BFA5F15000C0B202F089F8002043
:103EB000002602F085F8102002F082F814F8010BB9
:103EC00002F0A0F8701C46B2B6F1FF3FF6DCE8B293
:103ED0000135072828BF70BDE4E7000080B5AE209B
:103EE00002F06EF8202002F06BF8102002F068F863
:103EF000B02002F065F8C82002F062F8002002F05D
:103F00005FF8102002F05CF8402002F059F88120A0
:103F100002F056F8FF2002F053F8A12002F050F80A
:103F2000A62002F04DF8A82002F04AF83F2002F047
:103F300047F8A42002F044F8D32002F041F8002012
:103F400002F03EF8D52002F03BF8F02002F038F8FD
:103F5000D92002F035F8222002F032F8DA2002F0FF
:103F60002FF8122002F02CF8DB2002F029F8202094
:103F700002F026F88D2002F023F8142002F020F839
:103F8000AF2002F01DF8FFF76DFF80BD80B541F650
:103F90005C10C2F20000FEF7F7FC80BD40F2E810B2
:103FA000C2F20000016800291CBF0139016070479E
:103FB00070B50446006843F20B06056C00EB411037
:103FC000D0F8081BC4F65476B54207D311F400416B
:103FD0001EBF00F530604FF4004181602046FFF7BE
:103FE00021F8B54209D32069012818BF70BD2068A7
:103FF00004F57172012101F0BDFC70BD70B504467D
:1040000000680E4600EB4111036CD1F8082B2569BE
:1040100001F53061012D29D1150739D4950652D407
:1040200012F0280F18BF70BD43F20B05C4F654758B
:10403000AB4202D312F4004233D1C6EBC6020B6985
:1040400004EB8201D1E981256FF3DF43D31A2A44BF
:10405000C1F81432C1F80822AEB9D1F8101291B9E2
:1040600004F57172012101F085FC0CE043F20B05AF
:10407000C4F65475FF35AB4217D1100411D4900625
:1040800044BF20208860F1B22046FEF751FB70BD8E
:1040900043F20B00C4F65470834213D312F4004071
:1040A00010D04FF40040886070BD3EB9D4F81012B3
:1040B00021B904F57172002101F05CFCF1B22046D7
:1040C000FEF736FB70BD2020886070BD2DE9F04FF3
:1040D00085B00646C1EBC10006EB8000054655F8E9
:1040E000507F2C4654F8042F974254D38346D6F879
:1040F00000C05BF8443FBA1A9A4288BF1A46029140
:10410000CDF810C00CEB4111D1F8183903329BB235
:10411000B3EB920F2ED300F14808029801F510611D
:104120005FFA80FA039100BF20682968814221D993
:10413000DBF80020A1EB00099145D8F80010377C8E
:1041400088BF914604981FFA89F35246009701F000
:10415000E1FED8F8000021684844C8F8000001EBEF
:1041600009002060039809F10301806980B2B0EB77
:10417000910FD9D228682168884202980BD8049BF5
:1041800000F00F000121D3F8342801FA00F022EAF0
:104190000000C3F8340805B0BDE8F08F7047000098
:1041A00010B50024C4F2020420464FF480610122BD
:1041B000FEF7ECF920464FF400710122FEF7E6F914
:1041C00020464FF480710122FEF7E0F9642001F0EF
:1041D000F3FE20464FF480710022FEF7D7F96420E9
:1041E00001F0EAFE20464FF480710122FEF7CEF97D
:1041F00010BD000010B582B040F21C03C2F20003F3
:104200001B6849F68174C1F25E64A3FB043C04465A
:104210004FEA5C504FF47A73584301906068B0F5F0
:10422000827F0DD113460A462046802100F014F803
:1042300078B1606D40F020006065032002B010BDD1
:10424000019830B10198013801902068806800061B
:10425000F6D4002002B010BD2DE9F04381B01E4617
:1042600090460D468146FEF797F9301A00EB080795
:10427000FEF792F940F21C01C2F200010968C1F395
:10428000CB3179430091D9F8001089682940A942BF
:1042900019D1064608F1010406E000BFD9F8000074
:1042A00080682840A8420ED1002CF7D0FEF774F9A0
:1042B000801BB8420BD200980099002808BF07461F
:1042C000481E0090EAE7002001B0BDE8F083D9E97C
:1042D00000014268B1F5827F22F0E00242600BD11A
:1042E000D9F80810B1F5004F02D0B1F5806F03D1B5
:1042F000016821F040010160D9F82810B1F5005F94
:1043000007D1016821F400510160016841F40051B6
:104310000160012089F85100002089F85000032035
:1043200001B0BDE8F083000080B582B041F6645171
:10433000C2F2000109688DF8070000BF8868800795
:10434000FCD541F66450C2F200000DF107010122D4
:104350004FF47A73FFF7CCF902B080BD70470000CC
:104360000088704780B57F28D8BF3F2900DD80BD19
:1043700041F2E053C2F2000393F800E001F0070CB1
:10438000012303FA0CFCCB1701EB5371BEF1000FB4
:104390004FEAE10104D040F2EC53C2F2000303E023
:1043A00040F2EC13C2F2000303EBC113195C184492
:1043B0001AB141EA0C01017080BD21EA0C010170C3
:1043C00080BD000080B511A200200121FDF792FB05
:1043D00041F61C60C2F2000090ED000A9FED0E1A3B
:1043E0000C2020EE010ABCEEC00A10EE102A0121BA
:1043F0000523FDF737FB09A200200A21FDF77AFB10
:1044000007A200201421FDF775FB80BD553D20203B
:104410002020206D5600000000007A4450595800BA
:104420003230313230323036303131360000000037
:10443000B0B501380024B4EB106F1CBF0120B0BD33
:104440004EF21005CEF2000568604FF0FF300F21EC
:1044500001F012FE0720AC6028602046B0BD0000CD
:1044600080B5FEF79FF880BD70B592B006AC2046CF
:104470003021FCF707F8002543F640000595CDE90B
:104480000355CDE901550095C4F2020001680226EA
:1044900041F080510160006800F080500090009869
:1044A00047F200000095C4F20000016866F38F3106
:1044B0000160006800F440400090009801200690E0
:1044C0004FF4803007904FF480000D9019200E902B
:1044D0004FF4A8700F9004201090072011902046F0
:1044E0000C96FEF7CDFE78B90F20CDE901064FF40A
:1044F0008050CDE9040501A802210395FEF7D6FD01
:10450000002804BF12B070BDFDF720FB4EF68850A6
:10451000CEF20000016841F47001016070470000B4
:1045200080B541F6BC50C2F20000FFF73DFA80BDF5
:1045300010B540F2FF7E0368C4F2000E40F2000C9A
:104540007045C4F2010C0ADD40F60002C4F200021C
:1045500090420DD060450BD040F6004204E0B0F12F
:10456000804F05D040F20042C4F20002904203D1D5
:104570004A6823F0700313434FF6FF72C4F200023F
:10458000904209DC704512DCB0F1804F26D040F239
:104590000042C4F200021FE044F2FF32C4F2010202
:1045A00090420FDC604519D044F2000212E040F660
:1045B0000002C4F20002904210D040F60042C4F261
:1045C000000209E044F60002C4F20102904205D064
:1045D00044F20042C4F20102904203D1CA6823F4BB
:1045E0004073134323F080024B69D1F800E08C68DC
:1045F0001A4360450260C462C0F828E002D109692C
:10460000CCF830100121416110BD000010B5D0F888
:10461000BC323BB38E4601EB810100EB810151F8C6
:10462000184F64B1D0F8C4C2CEEBCE020CEB8202BC
:10463000D2F844C0B4FBFCF202FB1C42A2B100243D
:10464000C3F81442D0F8C002D0F810C0BCF1000F7B
:1046500006D0D3F8080203F504717246E04700243F
:10466000204610BD032010BD00240C6071460022BE
:10467000002300F045FD204610BD0000B0B5D0F885
:10468000BC527DB1044600F01BFCD4F8C02205F5F5
:104690000371D368D5F80422C5F80C021046984778
:1046A0000020B0BD0320B0BDB0B58121044600F0AC
:1046B00067FB002520460121258700F061FB20468D
:1046C0008221A4F8785100F05BFBD4F8BC02E564C9
:1046D00048B1D4F8C00240688047D4F8BC0200F06A
:1046E000E3FEC4F8BC520020B0BD000010B5D0F805
:1046F000BC4284B1D0F8C01279B194F80002FF280E
:104700000BD08B6894F8012221469847FF2084F84B
:104710000002002010BD032010BD002010BD0000CD
:10472000014640F2E0000A22C2F200000A8070470F
:10473000014640F258004322C2F200000A8070474E
:10474000014640F29C004322C2F200000A807047FA
:10475000014640F2EC004322C2F200000A8070479A
:10476000F0B581B004464FF4077000F09FFEE0B34F
:104770000546C4F8BC02207C4026002808BF4FF440
:104780000076204681210222334600F007FC0127F3
:104790002046012102223346278700F0FFFB10202C
:1047A000A4F84E002046822103220823A4F8787141
:1047B00000F0F4FBD4F8C002A4F84C700068804705
:1047C0000020C5F81402C5F81802207CD5F8042290
:1047D000002820464FF001010CBF4FF40073402326
:1047E00000F0E8FB002001B0F0BD0020C4F8BC02DE
:1047F000022001B0F0BD000080B5D0F8BC1271B14C
:1048000090F810C0D1F8042240230121BCF1000F20
:1048100008BF4FF4007300F0CDFB002080BD0320E3
:1048200080BD000000290EBF0320C0F8C012002088
:1048300070470000D0F8BC0200280EBF0320C0F86B
:104840000412002070470000D0F8BC0200280FBFFF
:104850000320C0F80812C0F81022002070470000A2
:1048600070B582B0D0F8BC62044600208DF8070015
:10487000ADF80400B6B108780D4610F0600113D011
:10488000202928D1EA88002A2BD0000632D4687863
:10489000314686F80002204686F8012200F0B8F87A
:1048A000002660E003265EE068780B2844D80026E6
:1048B000DFE800F006594242424242424242303C66
:1048C00094F89C0203283DD101A92046022200F061
:1048D000B9F8002647E02046294600F08FF8032665
:1048E00041E0D4F8C0022946836868780022002697
:1048F000984738E0D4F8C002314683686878984712
:10490000EA8820463146072A28BF072200F09AF895
:10491000002628E094F89C02032819D10DF1070124
:104920002046012200F08EF800261CE094F89C023C
:10493000032813D1002616E02046294600F05EF831
:10494000032610E02046294600F058F803260AE026
:104950002046294600F052F8032604E02046294666
:1049600000F04CF80326304602B070BD80B5D0F898
:10497000BC223AB1D2F8141200294FF0010103D041
:10498000084680BD032080BDC2F81412D2F8103250
:10499000D2F808228121C36200F0B2FB0021084650
:1049A00080BD000080B5D0F8B8220AB152689047A7
:1049B000002080BD80B590F89C22013A022A09D8D7
:1049C0004988012918BF80BD0021C0F8A41200F059
:1049D00047F880BD00F012F880BD000080B5134696
:1049E0000A46002100F0E6FA002080BD80B513469B
:1049F0000A46002100F084FB002080BD10B5802114
:104A0000044600F063FB2046002100F05FFB10BD70
:104A100080B513460A460321C0F894120021C0E96C
:104A2000563300F0C7FA002080BD000080B5052194
:104A3000C0F8941200210022002300F0BBFA0020ED
:104A400080BD000080B513460A460221C0F89412CA
:104A50000021C0E9063300F053FB002080BD0000B8
:104A600080B50421C0F8941200210022002300F038
:104A700047FB002080BD000010B540F6F014C2F2E4
:104A800000040A4602A0214600F02AF9204610BD83
:104A900043444320436F6E666967000040F2301064
:104AA0001222C2F200000A807047000010B540F6E2
:104AB000F014C2F200040A4602A0214600F010F9E8
:104AC000204610BD43444320496E7465726661639D
:104AD0006500000040F258100422C2F200000A8073
:104AE0007047000010B540F6F014C2F200040A4608
:104AF00002A0214600F0F4F8204610BD53544D6941
:104B000063726F656C656374726F6E6963730000C6
:104B100010B540F6F014C2F200040A4602A0214685
:104B200000F0DEF8204610BD53544D333220566954
:104B3000727475616C20436F6D506F727400000069
:104B400080B51A200880FDF719F840F25C10C2F217
:104B5000000080BD80B5C988012910D190F89C1251
:104B60004A1E022A04D20022014641F8082F02E020
:104B7000032904D1011D0122FFF764FF80BDFFF767
:104B80003DFF80BDB0B582B0044648880D464FF069
:104B9000FF3101EB102100220629ADF8062061D873
:104BA000DFE801F00414086060212A00D4F8B402A0
:104BB000026841E0C0B2052854D8DFE800F00329BC
:104BC0002D313539D4F8B402426834E0217CD4F870
:104BD000B80200290CBF816AC16A0DF1060088473E
:104BE0000146022012E0207CE0BBD4F8B802416B01
:104BF0000DF10600884723E0207C98BBD4F8B8026A
:104C0000016B0DF10600884701460720487018E047
:104C1000D4F8B40282680EE0D4F8B402C2680AE0A4
:104C2000D4F8B402026906E0D4F8B402426902E0A2
:104C3000D4F8B4028269AAB1207C0DF10601904734
:104C400001460120A8B1EA88AAB1BDF80600B8B1B2
:104C5000904238BF02462046ADF80620FFF7F2FE2C
:104C600002B0B0BD2046FFF7C9FE00210020002899
:104C7000E9D102B0B0BD2046FFF7F2FE02B0B0BDF0
:104C80002046FFF7BBFE02B0B0BD0000017849B17D
:104C9000411E00208A780130002A01F10101F9D17A
:104CA000C0B270470020C0B27047000080B590F8D5
:104CB0009C22013A022A0FD8C98802290CD1D0F8C7
:104CC000A4120322002908BF0122014641F80C2F3B
:104CD0000222FFF7B7FE80BDFFF790FE80BD000007
:104CE00070B5F0B1164605460C46FFF7CFFF02211E
:104CF00001EB40003080207003206070287800288D
:104D000008BF70BD691E0222002300BFD6B2A055A5
:104D100046F00100235488780232002801F1010195
:104D2000F4D170BD032884BF0320704740F20031E6
:104D3000C000C0F2013121FA00F0C0B2704700009B
:104D4000002804BF0320704780B50023C0F8B832A4
:104D5000C0F8C0320029C0F8CC3218BFC0F8B41275
:104D6000012180F89C12027000F0B0F880BD0000B4
:104D700080B5D0F8C402FDF715FDFFF7D3FF80BD65
:104D800080B5D0F8C402FDF7E7FCFFF7CBFF80BD8C
:104D9000B0B5044671B194F89C02032849D1D4F807
:104DA000B8024269002A44D020469047002808BF34
:104DB0000020B0BDD4F89402022833D1D4E9071002
:104DC00081420DD90B1A204611461A46E361FFF7BE
:104DD0000DFE204600210022002300F0EBF821E028
:104DE0000FD1A16981420CD3D4F89802814208D234
:104DF0002046002100220025FFF7F8FDC4F8985254
:104E0000E7E794F89C02032805D1D4F8B802C168FA
:104E100009B1204688472046802100F057F92046F6
:104E2000FFF704FE94F8A002012804BF002084F8D4
:104E3000A0020020B0BD000010B5044669B194F88E
:104E40009C0203281CD1D4F8B8028269C2B1204662
:104E50009047002808BF002010BDD4F89402032812
:104E60000ED1D4E9570398420CD9C01AC4F85C019A
:104E7000984238BF0346204611461A46FFF7AEFD5A
:104E8000002010BD94F89C02032805D1D4F8B80284
:104E9000016909B1204688472046FFF7E1FD00205F
:104EA00010BD00000020704780B5012180F89C12E1
:104EB000D0F8B81211B14A6801799047002080BD3E
:104EC00080B5D0F8C402FDF79FFC80BD10B5017815
:104ED00009B1002010BD41F65C11C2F20001C1F819
:104EE0000404C0F8C4124FF0A0400422C1E900023B
:104EF00002200022C1E90302C1E906020846C1E915
:104F00000822C1E90B22FDF775FF002818BFFCF746
:104F10001DFE41F65C14C2F2000420468021FDF71C
:104F2000C9FB204600214022FDF7C8FB2046012195
:104F30008022FDF7C3FB002010BD0000D0F8C402A2
:104F400001F07F02C2EBC20200EB820000F13E02E0
:104F5000090658BF00F5FF721078704780B5D0F889
:104F6000B82242B190F89C32032B02D1126A02B1EE
:104F70009047002080BD032080BD000080B5D0F8A0
:104F8000B82242B190F89C32032B02D1526A02B18E
:104F90009047002080BD032080BD000080B594466E
:104FA000D0F8C4021A466346FDF738FCFFF7BAFE94
:104FB00080BD000080B5D0F8C402FDF75FFCFFF7AC
:104FC000B1FE80BDF0B581B004460120002184F817
:104FD0009C02C4F89412D4F8B8026160C4F8A41218
:104FE000E8B1D4F8BC1221B1426812B120460021C8
:104FF0009047204600210022402300254026FFF74D
:10500000CDFF01272046802100224023A4F86471AF
:10501000C4F86061FFF7C2FFA784266200E00325A1
:10502000284601B0F0BD000090F89C12042904BF8E
:1050300090F89D1280F89C120020704780B5D0F83F
:10504000B81241B190F89C22032A02D1C96901B17A
:105050008847002080BD032080BD0000024600205C
:105060001174704780B5D0F8C402FDF7C7FFFFF791
:1050700059FE80BDB0B500F2AA250446284600F0CE
:1050800047F80120C4F8940294F8AA02B4F8B022B8
:1050900000F01F010229C4F8982207D001290AD084
:1050A00071B92046294600F0F9F8B0BD20462946DE
:1050B00000F02CF9B0BD2046294600F0C3F9B0BD80
:1050C00000F08001204600F001F8B0BD80B5D0F8B6
:1050D000C402FDF7FDFBFFF725FE80BD80B5D0F8CB
:1050E000C402FDF7A9FFFFF71DFE80BD014690F841
:1050F0009C02042281F89D02002081F89C227047C6
:1051000080B5D0F8C402FDF71BFCFFF70BFE80BD95
:10511000B0B50C4609780546017060786870A01C2F
:10512000FFF71EF96880201DFFF71AF9A880A01D5F
:10513000FFF716F9E880B0BD10B582B00446002034
:10514000ADF8060059B1CA6AC4F8B81222B10DF11F
:1051500006009047C4F8CC02002002B010BD032026
:1051600002B010BDB0B58A88044642B9C88830B9CB
:1051700048887F2803D894F89C12032903D120463D
:10518000FFF73CFCB0BD00F07F052046294684F8BF
:105190009E52FFF767FF2046FFF762FC002D14BF09
:1051A0000220012084F89C02B0BD000080B5D0F838
:1051B000B82212B11268904780BD032080BD000064
:1051C000B0B50446488840F6EC15C2F2000510F070
:1051D000FE0F287004D02046FFF710FC0320B0BD5E
:1051E00094F89C22C1B2032A0DD0022A23D191B394
:1051F00020466160FFF7DAFF054688B32046FFF7D7
:10520000FDFB2846B0BDF9B16068884223D0C1B229
:105210002046FFF7C7FB297820466160FFF7C6FFED
:10522000054628B32046FFF7E9FB21792046FFF722
:10523000B9FB022018E02046FFF7E0FB2978204662
:10524000FFF7B0FB0320B0BD022084F89C0220468B
:105250006160FFF7A7FB2046FFF702FC0020B0BD0E
:105260002046FFF7FDFB032084F89C022846B0BDD2
:105270002046FFF7F5FB2846B0BD000080B5498801
:10528000012918BF80BD0121C0F8A412FFF7E8FB77
:1052900080BD000080B5FFF721FF80BD80B50A7892
:1052A00012F0600208D0402A01D0202A12D1D0F892
:1052B000B8229268904780BD4A78092A0AD8DFE868
:1052C00002F0050D091109152009191DFFF7EEFC63
:1052D000002080BDFFF792FB002080BDFFF76AFB36
:1052E000002080BDFFF7CAFF002080BDFFF73AFF16
:1052F000002080BDFFF72EFC002080BDFFF760FF7F
:1053000080BDFFF73FFC002080BD0000B0B50D461A
:105310000978044611F060010AD0402901D0202903
:1053200070D1D4F8B8022946826820469047B0BDB3
:1053300068782979B0B1012833D0032862D194F874
:105340009C02032831D1688840B941F08000802850
:1053500004D0E88810B92046FFF7B8FE2046FFF7D2
:105360007FFB52E094F89C0203282CD0022849D1FC
:1053700041F08000802845D101F07F0000EB8000E3
:1053800004EB800000F11402090658BF00F5AA7270
:1053900000251560204611460222FFF753FB2846E0
:1053A000B0BD94F89C02032832D002282AD141F0E3
:1053B0008000802826D02046FFF788FE20468021E6
:1053C000FFF784FE21E001F00F0202EB820211F0F0
:1053D000800004EB82020CBFB2F86421928C8AB187
:1053E00001F07F0202EB820204EB820202F114055B
:1053F000002841F0800008BF02F5AA75802813D16B
:10540000002017E02046FFF7F9FA00252846B0BD36
:1054100068880028F9D1480602D02046FFF7A8FC8A
:105420002046FFF71DFB7CE72046FFF787FD00289D
:10543000E6D001202860204629460222FFF702FB21
:10544000E3E7000070B50D460978044611F06001ED
:1054500018BF40290ED194F89C020138022803D8C5
:10546000A88810F0FE0F0DD02046FFF7C7FA0026DF
:10547000304670BD2029EED02046FFF7BFFA002647
:10548000304670BDD4F8B80229468268204690475D
:1054900006460028F4D1E8880028F1D12046FFF71D
:1054A000DFFA304670BD00007047000040F6F03073
:1054B000C2F200007047000080B54B780A78012BDB
:1054C00002F00F0324D14FF0010CD0F81CE80CFAC5
:1054D00003F343EA0E03C0F81C3800F5106C5301C7
:1054E0005CF80300000431D4886891F803E06FF39E
:1054F000DF2053F80C1040EA8250084340EA8E4007
:1055000040F0805040F4004043F80C00002080BD83
:105510004FF4803CD0F81CE80CFA03F343EA0E0386
:10552000C0F81C3800F53060520183581B040DD4BC
:105530008B6891F803C011586FF3DF23194341EAD8
:105540008C4141F0805141F400411150002080BD58
:105550000146D0F8000940F2FF729043C1F80009FB
:10556000D1F8040840F480720020C1F80428704784
:1055700070B50699049D0129044619D1A06B4FF618
:10558000BF7120F48030A063E068CFF6BD710840A1
:10559000E060E0680D9920F440100129E06003D13B
:1055A000E06840F48010E060204600F01DF80FE055
:1055B000E0680A9E40F04000E060204600F014F8E9
:1055C000A16B002E14BF21F4803141F48031A1631E
:1055D000012D18BF70BDA16841F00601A160A1684E
:1055E00041F02001A16070BD81B040F64051C0F291
:1055F00003010022009200BF009A01328A42009209
:1056000015D80269B2F1FF3FF6DC00220092026970
:1056100042F00102026100BF009A01328A42009208
:1056200005D80269D207F7D1002001B070470320E6
:1056300001B0704710B54B7891F800E047F6000CC8
:10564000012BCEF6334C00EB4E1108D1D1F80039C6
:10565000B3F1FF3F01F510630DDD01241FE0D1F828
:10566000002B01F53063B2F1FF3F0CF1707C0CDDD3
:105670004FF4803413E01968012441F0006119608F
:10568000196841F08041196009E019684FF48034CD
:1056900041F000611960196841F0804119600EF015
:1056A0000F02D0F83C1804FA02F29143C0F83C18FB
:1056B000D0F81C189143C0F81C18186800EA0C01B7
:1056C0000020196010BD00000146D0F8000E20F047
:1056D0000300C1F8000ED1F8040820F002020020F7
:1056E000C1F80428704700000146D0F8000E20F0F1
:1056F0000300C1F8000ED1F8040840F002020020B7
:10570000C1F80428704700002DE9F04F81B004462D
:10571000DDF844A00C98DDF828900D4641210022C8
:1057200044F8212001315029FAD1BAF1000F07D0F5
:10573000A16B21F40011A163A16B41F4002110E0E1
:10574000D4F8041841F00201C4F80418A16B41F424
:105750000011A163A16B21F40021A163A16B21F4CD
:1057600080214FF00008A163C4F8008ED4F800181F
:10577000002BC4F8001818BF0123012818BF032309
:105780002046194600F032FB2046102100F06AFA4C
:105790008346204600F04EFAC4F81088C4F81488F6
:1057A000C4F81C8885B304F510614FF67F320023DE
:1057B0000E684FF09047002B08BF4FF0006707EAD4
:1057C000E67701330F60C1F810808A609D4201F1D5
:1057D0002001EDD104F530614FF0000C4FF67F331E
:1057E000002600BF0F684FF09042002E08BF4FF018
:1057F000006202EAE77201360A60C1F810C08B60ED
:10580000B54201F12001EDD1D4F81018B9F1000F23
:1058100021F48071C4F810186FF08041C4F818802A
:10582000616103D1A16941F01001A161A16943F651
:105830000002C8F23C0211430D9AA1611AB1A1699C
:1058400041F00801A161BAF1010F05D1A16941F050
:10585000804141F00401A16150EA0B0018BF012012
:1058600001B0BDE8F08F00000146806820F0010221
:1058700000208A6070470000F0B54B7891F800C0B6
:10588000012B23D14E6900EB4C1E00254FF6FF740F
:10589000DEF81079CFF6F875CEF20704002E0EF57B
:1058A00010633ED03D401D611D6925401D618D681E
:1058B00004F10054AE4288BF4D611D6945F40025D6
:1058C0001D614D691E692C40344332E000EB4C13DE
:1058D000D3F8100B6FF31200C3F8100BD3F8100BB2
:1058E0006FF3DC40C3F8100B4F6903F53063002FF2
:1058F0001CBF8F684F611F694FF6FF7047F4002788
:105900001F61CEF207008F6800F100501E69384019
:105910003043012A186114D1C868002818BF5861A3
:105920000FE03C401C611C6944F400241C611C69AC
:105930002C40012A1C610BD10869002818BFCEF841
:1059400014094FF004411868084318600020F0BDA6
:10595000DEF8002942F00442CEF800294969002906
:10596000F4D00CF00F01012202FA01F100F6340329
:10597000E9E70000D0F840C043F20B03C4F65473CB
:105980009C4503D3D0F8003B002B1ED40023C0F865
:10599000103BD0F8103B012943F40023C0F8103B22
:1059A000D0F8103B43F01803C0F8103BD0F8103B80
:1059B00043F0C043C0F8103B07D1C0F8142BD0F817
:1059C000001B41F08021C0F8001B00207047000040
:1059D0004B780A78012B11D100F5106052018358E1
:1059E00023F400138350C97801F0FE01022915D178
:1059F000115841F0805111500020704700F530607F
:105A00005201835823F400138350C97801F0FE013A
:105A1000022903D1115841F08051115000207047E4
:105A20004A780978012A0ED100EB4112D2F8000918
:105A3000002902F5106114D0002812D4086820F063
:105A4000804008600DE000EB4112D2F8000B002905
:105A500002F5306105D0002803D4086820F08040AA
:105A60000860086840F4001200200A6070470000D7
:105A7000F0B581B04B7894460A78012B30D1D1F83B
:105A800014E000EB4213D3F81059BEF1000F03F5F8
:105A900010644AD06FF31205256125696FF3DC4568
:105AA00025618D6827690EEB0506013EB6FBF5F50D
:105AB0000026C1F6F87606EAC5453D4325617546E0
:105AC00026696FF3DF4535432561CD78012D37D148
:105AD000256925F0C0452561256945F000552EE072
